S01300004D6963726F4D6F757365322E73726563DC
S11300003DC000004BC0000049C0000047C00000D4
S113001045C0000043C0000041C000003FC00000D4
S11300203DC000003BC0000039C0000037C00000E4
S113003035C0000033C0000031C000002FC00000F4
S11300402DC000002BC00000F9C0000027C0000034
S113005025C0000023C0000021C000001FC0000014
S11300601DC000001BC0000019C0000017C0000024
S113007015C0000013C0000011C0000011241FBEF1
S1130080CFEFD4E0DEBFCDBF21E0A0E0B1E001C0FE
S11300901D92A632B207E1F7D0D009C2B1CF0895BC
S11300A080EF8AB91092890010928800AAE8B0E023
S11300B011961C921E921092B300E4EBF0E01082B1
S11300C081EA8093800089E08093810083EA8093B1
S11300D0B00081E08093B100809106019091070106
S11300E011969C938E93A4E0B1E0B0930901A09380
S11300F008018C9180830895CF93DF93EC01909352
S1130100070180930601072E000C880B990BE0D0A1
S11301102AE037ED43E65FE33FD1A7D070930501B2
S113012060930401D0938900C0938800E4E0F1E077
S1130130F0930901E093080180818093B300DF917B
S1130140CF910895CF93DF9360E070E080E090E07A
S1130150D3DF87EA91E60197F1F700C000006FEF63
S113016070E08FEF90E0C8DF8DE597E90197F1F734
S113017000C0000060E070E084E690E0BDDF8FE244
S113018095E70197F1F700C0000060E070E080E0BF
S113019090E0B2DF87ED96ED0197F1F700C0000023
S11301A068EC70E080E090E0A7DF87EA91E60197D1
S11301B0F1F700C00000C0E0D0E06AE070E0CE01DA
S11301C09BDF89EF90E00197F1F700C000002196D2
S11301D0CC3DD10591F7CCEDD0E06AE070E0CE01E2
S11301E08BDF89EF90E00197F1F700C000002197C1
S11301F0CA30D10591F760E070E080E090E07CDFE8
S1130200DF91CF91089581B181B982B182B9089506
S113021046DF46DFF8DF87E390E0909303018093A5
S113022002012FE181EA97E0215080409040E1F7FC
S113023000C00000789486DFFECFEADF1F920F92A1
S11302400FB60F9211248F939F9380910001909188
S11302500101019690930101809300019F918F9178
S11302600F900FBE0F901F90189504D06894B11191
S11302708DC0089570D088F09F5790F0B92F9927BA
S1130280B751A0F0D1F0660F771F881F991F1AF09D
S1130290BA95C9F712C0B13081F077D0B1E00895B2
S11302A074C0672F782F8827B85F39F0B93FCCF333
S11302B0869577956795B395D9F73EF49095809593
S11302C0709561957F4F8F4F9F4F0895E89409C0B3
S11302D097FB3EF490958095709561957F4F8F4F75
S11302E09F4F9923A9F0F92F96E9BB279395F6958B
S11302F0879577956795B795F111F8CFFAF4BB0F09
S113030011F460FF1BC06F5F7F4F8F4F9F4F16C06C
S1130310882311F096E911C0772321F09EE8872FF6
S1130320762F05C0662371F096E8862F70E060E0B2
S11303302AF09A95660F771F881FDAF7880F96952B
S1130340879597F9089557FD9058440F551F59F014
S11303505F3F71F04795880F97FB991F61F09F3FAE
S113036079F087950895121613061406551FF2CFD7
S11303704695F1DF08C0161617061806991FF1CF27
S113038086957105610508940895E894BB2766274E
S11303907727CB0197F908950BD078C069D028F05E
S11303A06ED018F0952309F05AC05FC01124EECF27
S11303B0CADFA0F3959FD1F3950F50E0551F629FBC
S11303C0F001729FBB27F00DB11D639FAA27F00DAA
S11303D0B11DAA1F649F6627B00DA11D661F829FD1
S11303E02227B00DA11D621F739FB00DA11D621FB6
S11303F0839FA00D611D221F749F3327A00D611DD3
S1130400231F849F600D211D822F762F6A2F1124B4
S11304109F5750408AF0E1F088234AF0EE0FFF1F07
S1130420BB1F661F771F881F91505040A9F79E3F3E
S1130430510570F014C0AACF5F3FECF3983EDCF393
S1130440869577956795B795F795E7959F5FC1F77B
S1130450FE2B880F911D9695879597F9089597F926
S11304609F6780E870E060E008959FEF80EC089556
S113047000240A941616170618060906089500247F
S11304800A9412161306140605060895092E0394F9
S1130490000C11F4882352F0BB0F40F4BF2B11F46D
S11304A060FF04C06F5F7F4F8F4F9F4F0895F89494
S10504B0FFCF78
S9030000FC
