:100000003DC000004BC0000049C0000047C00000D8
:1000100045C0000043C0000041C000003FC00000D8
:100020003DC000003BC0000039C0000037C00000E8
:1000300035C0000033C0000031C000002FC00000F8
:100040002DC000002BC0000029C0000027C0000008
:1000500025C0000023C0000021C000001FC0000018
:100060001DC000001BC0000019C0000017C0000028
:1000700015C0000013C0000011C0000011241FBEF5
:10008000CFEFD4E0DEBFCDBF21E0A0E0B1E001C002
:100090001D92A432B207E1F7DFD003C2B1CF0895B9
:1000A00080EF8AB91092890010928800AAE8B0E027
:1000B00011961C921E921092B300E4EBF0E01082B5
:1000C00081EA8093800089E08093810083EA8093B5
:1000D000B00081E08093B10080910401909105010E
:1000E00011969C938E93A2E0B1E0B0930701A09388
:1000F00006018C9180830895CF93DF93EC01909358
:10010000050180930401072E000C880B990BDAD0AF
:100110002AE037ED43E65FE339D1A1D070930301C4
:1001200060930201D0938900C0938800E2E0F1E07F
:10013000F0930701E093060180818093B300DF9183
:10014000CF910895CF93DF9360E070E080E090E07E
:10015000D3DF2FE78AE196E0215080409040E1F71D
:1001600000C000006FEF70E08FEF90E0C5DF2FED73
:1001700085E799E0215080409040E1F700C0000001
:1001800060E070E084E690E0B7DF2FEF82E597E073
:10019000215080409040E1F700C0000060E070E036
:1001A00080E090E0A9DF2FE78DE69DE021508040C0
:1001B0009040E1F700C0000068EC70E080E090E063
:1001C0009BDF2FE78AE196E0215080409040E1F7E5
:1001D00000C00000C0E0D0E06AE070E0CE018CDF3B
:1001E00087E893E10197F1F700C000002196CC3D2C
:1001F000D10591F7CCEDD0E06AE070E0CE017CDF74
:1002000087E893E10197F1F700C000002197CA3019
:10021000D10591F760E070E080E090E06DDFDF9164
:10022000CF91089581B181B982B182B9089537DF44
:10023000789436DFF7DF81E290E0909301018093BC
:1002400000012FE786E998E9215080409040E1F7CE
:1002500000C0000077CF0895EADFE9DFFECF04D0C9
:100260006894B1118DC0089570D088F09F5790F0B8
:10027000B92F9927B751A0F0D1F0660F771F881FCB
:10028000991F1AF0BA95C9F712C0B13081F077D032
:10029000B1E0089574C0672F782F8827B85F39F0D0
:1002A000B93FCCF3869577956795B395D9F73EF42A
:1002B00090958095709561957F4F8F4F9F4F0895D2
:1002C000E89409C097FB3EF49095809570956195F0
:1002D0007F4F8F4F9F4F9923A9F0F92F96E9BB27A6
:1002E0009395F695879577956795B795F111F8CF22
:1002F000FAF4BB0F11F460FF1BC06F5F7F4F8F4F8D
:100300009F4F16C0882311F096E911C0772321F082
:100310009EE8872F762F05C0662371F096E8862F1A
:1003200070E060E02AF09A95660F771F881FDAF771
:10033000880F9695879597F9089557FD9058440F23
:10034000551F59F05F3F71F04795880F97FB991F34
:1003500061F09F3F79F087950895121613061406F1
:10036000551FF2CF4695F1DF08C01616170618067E
:10037000991FF1CF86957105610508940895E89459
:10038000BB2766277727CB0197F908950BD078C054
:1003900069D028F06ED018F0952309F05AC05FC0DC
:1003A0001124EECFCADFA0F3959FD1F3950F50E053
:1003B000551F629FF001729FBB27F00DB11D639F17
:1003C000AA27F00DB11DAA1F649F6627B00DA11DBD
:1003D000661F829F2227B00DA11D621F739FB00D63
:1003E000A11D621F839FA00D611D221F749F3327D3
:1003F000A00D611D231F849F600D211D822F762F6C
:100400006A2F11249F5750408AF0E1F088234AF068
:10041000EE0FFF1FBB1F661F771F881F91505040B4
:10042000A9F79E3F510570F014C0AACF5F3FECF3CF
:10043000983EDCF3869577956795B795F795E795A0
:100440009F5FC1F7FE2B880F911D9695879597F9B1
:10045000089597F99F6780E870E060E008959FEF46
:1004600080EC089500240A9416161706180609064B
:10047000089500240A94121613061406050608951A
:10048000092E0394000C11F4882352F0BB0F40F4A2
:10049000BF2B11F460FF04C06F5F7F4F8F4F9F4FE2
:0604A0000895F894FFCF5F
:00000001FF
