S01300004D6963726F4D6F757365322E73726563DC
S11300003DC0000056C0000054C0000052C00000B3
S113001050C000004EC000004CC000004AC00000A8
S113002048C0000046C0000044C0000042C00000B8
S113003040C000003EC000003CC000003AC00000C8
S113004038C0000036C000006AC1000032C00000A1
S113005030C000002EC000002CC000002AC00000E8
S113006028C0000026C0000024C0000022C00000F8
S113007020C000001EC000001CC0000011241FBED0
S1130080CFEFD4E0DEBFCDBF11E0A0E0B1E0E4E902
S1130090F5E002C005900D92A030B107D9F721E038
S11300A0A0E0B1E001C01D92A632B207E1F7D9D0B9
S11300B06FC2A6CF089580EF8AB91092890010927A
S11300C08800AAE8B0E011961C921E921092B30028
S11300D0E4EBF0E0108281EA8093800089E0809371
S11300E0810083EA8093B00081E08093B100809125
S11300F006019091070111969C938E93A4E0B1E0C0
S1130100B0930901A09308018C9180830895CF9343
S1130110DF93EC019093070180930601072E000CF6
S1130120880B990B46D12AE037ED43E65FE3A5D16E
S11301300DD17093050160930401D0938900C0939D
S11301408800E4E0F1E0F0930901E0930801808184
S11301508093B300DF91CF910895CF93DF9360E054
S113016070E080E090E0D3DF2FE78AE196E0215051
S113017080409040E1F700C000006FEF70E08FEF27
S113018090E0C5DF2FED85E799E021508040904055
S1130190E1F700C0000060E070E084E690E0B7DFC3
S11301A02FEF82E597E0215080409040E1F700C0B6
S11301B0000060E070E080E090E0A9DF2FE78DE6CA
S11301C09DE0215080409040E1F700C0000068ECC1
S11301D070E080E090E09BDF2FE78AE196E0215019
S11301E080409040E1F700C00000C0E0D0E06AE049
S11301F070E0CE018CDF87E893E10197F1F700C04E
S113020000002196CC3DD10591F7CCEDD0E06AE019
S113021070E0CE017CDF87E893E10197F1F700C03D
S113022000002197CA30D10591F760E070E080E0CA
S113023090E06DDFDF91CF9108953CDF3CDF87E3F1
S113024090E090930301809302012FE786E998E9F7
S1130250215080409040E1F700C0000078947DCFA9
S11302600895EBDF0FEF10E06EED70E08AEF90E0A1
S11302704EDF2FEF81E19AE7215080409040E1F773
S113028000C0000066E470E086E490E040DF2FEFF9
S113029083E294EF215080409040E1F700C00000D9
S11302A0CBE4D0E0BE01CE0132DF2FE78AE196E055
S11302B0215080409040E1F700C000002196C11514
S11302C021E0D20779F7C02FD12FBE01CE011FDF65
S11302D08FE493EC0197F1F700C000002197CB3431
S11302E0D10599F760E070E080EA90E010DF9FE3C9
S11302F022E48FE0915020408040E1F700C00000EC
S113030068EC70E088EC90E002DF9FEF28E08DE37A
S1130310915020408040E1F700C00000A5CF1F921B
S11303200F920FB60F9211248F939F938091000127
S113033090910101019690930101809300019F9196
S11303408F910F900FBE0F901F90189504D0689452
S1130350B1118DC0089570D088F09F5790F0B92FD7
S11303609927B751A0F0D1F0660F771F881F991F06
S11303701AF0BA95C9F712C0B13081F077D0B1E064
S1130380089574C0672F782F8827B85F39F0B93F74
S1130390CCF3869577956795B395D9F73EF4909508
S11303A08095709561957F4F8F4F9F4F0895E89486
S11303B009C097FB3EF490958095709561957F4FA9
S11303C08F4F9F4F9923A9F0F92F96E9BB27939557
S11303D0F695879577956795B795F111F8CFFAF467
S11303E0BB0F11F460FF1BC06F5F7F4F8F4F9F4F98
S11303F016C0882311F096E911C0772321F09EE8F6
S1130400872F762F05C0662371F096E8862F70E05B
S113041060E02AF09A95660F771F881FDAF7880F35
S11304209695879597F9089557FD9058440F551F51
S113043059F05F3F71F04795880F97FB991F61F062
S11304409F3F79F087950895121613061406551FD9
S1130450F2CF4695F1DF08C0161617061806991F45
S1130460F1CF86957105610508940895E894BB273A
S113047066277727CB0197F908950BD078C069D008
S113048028F06ED018F0952309F05AC05FC01124EB
S1130490EECFCADFA0F3959FD1F3950F50E0551F1F
S11304A0629FF001729FBB27F00DB11D639FAA27C5
S11304B0F00DB11DAA1F649F6627B00DA11D661F14
S11304C0829F2227B00DA11D621F739FB00DA11D35
S11304D0621F839FA00D611D221F749F3327A00DEF
S11304E0611D231F849F600D211D822F762F6A2F8B
S11304F011249F5750408AF0E1F088234AF0EE0F10
S1130500FF1FBB1F661F771F881F91505040A9F71C
S11305109E3F510570F014C0AACF5F3FECF3983EA4
S1130520DCF3869577956795B795F795E7959F5F83
S1130530C1F7FE2B880F911D9695879597F908951D
S113054097F99F6780E870E060E008959FEF80EC82
S1130550089500240A941616170618060906089525
S113056000240A9412161306140605060895092E8B
S11305700394000C11F4882352F0BB0F40F4BF2BFA
S113058011F460FF04C06F5F7F4F8F4F9F4F08953A
S1070590F894FFCF09
S9030000FC
